{
  "contracts/Kickstarter.sol": {
    "Kickstarter": {
      "abi": [
        {
          "inputs": [
            {
              "internalType": "string",
              "name": "_name",
              "type": "string"
            },
            {
              "internalType": "uint64",
              "name": "daysToRun",
              "type": "uint64"
            },
            {
              "internalType": "uint256",
              "name": "target",
              "type": "uint256"
            }
          ],
          "stateMutability": "nonpayable",
          "type": "constructor"
        },
        {
          "inputs": [
            {
              "internalType": "uint256",
              "name": "time",
              "type": "uint256"
            }
          ],
          "name": "TooEarly",
          "type": "error"
        },
        {
          "inputs": [
            {
              "internalType": "uint256",
              "name": "time",
              "type": "uint256"
            }
          ],
          "name": "TooLate",
          "type": "error"
        },
        {
          "anonymous": false,
          "inputs": [
            {
              "indexed": false,
              "internalType": "uint256",
              "name": "oldPrice",
              "type": "uint256"
            },
            {
              "indexed": false,
              "internalType": "uint256",
              "name": "newPrice",
              "type": "uint256"
            }
          ],
          "name": "FundingChanged",
          "type": "event"
        },
        {
          "inputs": [],
          "name": "claim",
          "outputs": [],
          "stateMutability": "payable",
          "type": "function"
        },
        {
          "inputs": [
            {
              "internalType": "uint256",
              "name": "amount",
              "type": "uint256"
            }
          ],
          "name": "donate",
          "outputs": [],
          "stateMutability": "payable",
          "type": "function"
        },
        {
          "inputs": [
            {
              "internalType": "address",
              "name": "funder",
              "type": "address"
            }
          ],
          "name": "donationOf",
          "outputs": [
            {
              "internalType": "uint256",
              "name": "",
              "type": "uint256"
            }
          ],
          "stateMutability": "view",
          "type": "function"
        },
        {
          "inputs": [
            {
              "internalType": "address",
              "name": "",
              "type": "address"
            }
          ],
          "name": "funders",
          "outputs": [
            {
              "internalType": "uint256",
              "name": "",
              "type": "uint256"
            }
          ],
          "stateMutability": "view",
          "type": "function"
        },
        {
          "inputs": [],
          "name": "getBalance",
          "outputs": [
            {
              "internalType": "uint256",
              "name": "",
              "type": "uint256"
            }
          ],
          "stateMutability": "view",
          "type": "function"
        },
        {
          "inputs": [],
          "name": "getRefund",
          "outputs": [],
          "stateMutability": "payable",
          "type": "function"
        },
        {
          "inputs": [],
          "name": "moveDeadline",
          "outputs": [],
          "stateMutability": "nonpayable",
          "type": "function"
        },
        {
          "inputs": [],
          "name": "owner",
          "outputs": [
            {
              "internalType": "address",
              "name": "",
              "type": "address"
            }
          ],
          "stateMutability": "view",
          "type": "function"
        },
        {
          "inputs": [],
          "name": "project",
          "outputs": [
            {
              "internalType": "address payable",
              "name": "owner",
              "type": "address"
            },
            {
              "internalType": "string",
              "name": "name",
              "type": "string"
            },
            {
              "internalType": "uint256",
              "name": "goal",
              "type": "uint256"
            },
            {
              "internalType": "uint256",
              "name": "deadline",
              "type": "uint256"
            },
            {
              "internalType": "uint256",
              "name": "raised",
              "type": "uint256"
            },
            {
              "internalType": "enum Kickstarter.State",
              "name": "state",
              "type": "uint8"
            }
          ],
          "stateMutability": "view",
          "type": "function"
        },
        {
          "inputs": [],
          "name": "raised",
          "outputs": [
            {
              "internalType": "uint256",
              "name": "",
              "type": "uint256"
            }
          ],
          "stateMutability": "view",
          "type": "function"
        }
      ],
      "evm": {
        "bytecode": {
          "linkReferences": {},
          "object": "60806040523480156200001157600080fd5b5060405162001281380380620012818339818101604052810190620000379190620003e1565b336000800160006101000a81548173ffffffffffffffffffffffffffffffffffffffff021916908373ffffffffffffffffffffffffffffffffffffffff16021790555082600060010190805190602001906200009592919062000114565b506201518082620000a791906200048b565b67ffffffffffffffff1642620000be9190620004d4565b600060030181905550806000600201819055506000806004018190555060008060050160006101000a81548160ff0219169083600281111562000106576200010562000531565b5b0217905550505050620005c5565b82805462000122906200058f565b90600052602060002090601f01602090048101928262000146576000855562000192565b82601f106200016157805160ff191683800117855562000192565b8280016001018555821562000192579182015b828111156200019157825182559160200191906001019062000174565b5b509050620001a19190620001a5565b5090565b5b80821115620001c0576000816000905550600101620001a6565b5090565b6000604051905090565b600080fd5b600080fd5b600080fd5b600080fd5b6000601f19601f8301169050919050565b7f4e487b7100000000000000000000000000000000000000000000000000000000600052604160045260246000fd5b6200022d82620001e2565b810181811067ffffffffffffffff821117156200024f576200024e620001f3565b5b80604052505050565b600062000264620001c4565b905062000272828262000222565b919050565b600067ffffffffffffffff821115620002955762000294620001f3565b5b620002a082620001e2565b9050602081019050919050565b60005b83811015620002cd578082015181840152602081019050620002b0565b83811115620002dd576000848401525b50505050565b6000620002fa620002f48462000277565b62000258565b905082815260208101848484011115620003195762000318620001dd565b5b62000326848285620002ad565b509392505050565b600082601f830112620003465762000345620001d8565b5b815162000358848260208601620002e3565b91505092915050565b600067ffffffffffffffff82169050919050565b620003808162000361565b81146200038c57600080fd5b50565b600081519050620003a08162000375565b92915050565b6000819050919050565b620003bb81620003a6565b8114620003c757600080fd5b50565b600081519050620003db81620003b0565b92915050565b600080600060608486031215620003fd57620003fc620001ce565b5b600084015167ffffffffffffffff8111156200041e576200041d620001d3565b5b6200042c868287016200032e565b93505060206200043f868287016200038f565b92505060406200045286828701620003ca565b9150509250925092565b7f4e487b7100000000000000000000000000000000000000000000000000000000600052601160045260246000fd5b6000620004988262000361565b9150620004a58362000361565b92508167ffffffffffffffff0483118215151615620004c957620004c86200045c565b5b828202905092915050565b6000620004e182620003a6565b9150620004ee83620003a6565b9250827fffffffffffffffffffffffffffffffffffffffffffffffffffffffffffffffff038211156200052657620005256200045c565b5b828201905092915050565b7f4e487b7100000000000000000000000000000000000000000000000000000000600052602160045260246000fd5b7f4e487b7100000000000000000000000000000000000000000000000000000000600052602260045260246000fd5b60006002820490506001821680620005a857607f821691505b60208210811415620005bf57620005be62000560565b5b50919050565b610cac80620005d56000396000f3fe6080604052600436106100915760003560e01c8063b2d5ae4411610059578063b2d5ae441461014a578063d949473f14610154578063f0ea4bfc14610191578063f14faf6f146101bc578063f60ca60d146101d857610091565b8063031b36771461009657806312065fe0146100d35780634e71d92d146100fe5780637f9f86b6146101085780638da5cb5b1461011f575b600080fd5b3480156100a257600080fd5b506100bd60048036038101906100b891906108b6565b610208565b6040516100ca91906108fc565b60405180910390f35b3480156100df57600080fd5b506100e8610220565b6040516100f591906108fc565b60405180910390f35b610106610228565b005b34801561011457600080fd5b5061011d610396565b005b34801561012b57600080fd5b5061013461040c565b6040516101419190610926565b60405180910390f35b610152610438565b005b34801561016057600080fd5b5061017b600480360381019061017691906108b6565b6105cf565b60405161018891906108fc565b60405180910390f35b34801561019d57600080fd5b506101a6610618565b6040516101b391906108fc565b60405180910390f35b6101d660048036038101906101d1919061096d565b610624565b005b3480156101e457600080fd5b506101ed610774565b6040516101ff96959493929190610acb565b60405180910390f35b60066020528060005260406000206000915090505481565b600047905090565b60006003015480421161027257806040517f2a35a32400000000000000000000000000000000000000000000000000000000815260040161026991906108fc565b60405180910390fd5b600060020154600060040154101561028957600080fd5b6001600281111561029d5761029c610a54565b5b600060050160009054906101000a900460ff1660028111156102c2576102c1610a54565b5b146102cc57600080fd5b6000800160009054906101000a900473ffffffffffffffffffffffffffffffffffffffff1673ffffffffffffffffffffffffffffffffffffffff163373ffffffffffffffffffffffffffffffffffffffff161461032857600080fd5b6000800160009054906101000a900473ffffffffffffffffffffffffffffffffffffffff1673ffffffffffffffffffffffffffffffffffffffff166108fc479081150290604051600060405180830381858888f19350505050158015610392573d6000803e3d6000fd5b5050565b3373ffffffffffffffffffffffffffffffffffffffff166000800160009054906101000a900473ffffffffffffffffffffffffffffffffffffffff1673ffffffffffffffffffffffffffffffffffffffff16146103f257600080fd5b62015180426104019190610b62565b600060030181905550565b60008060000160009054906101000a900473ffffffffffffffffffffffffffffffffffffffff16905090565b60006003015480421161048257806040517f2a35a32400000000000000000000000000000000000000000000000000000000815260040161047991906108fc565b60405180910390fd5b6000600201546000600401541061049857600080fd5b6000600660003373ffffffffffffffffffffffffffffffffffffffff1673ffffffffffffffffffffffffffffffffffffffff16815260200190815260200160002054116104e457600080fd5b6000600660003373ffffffffffffffffffffffffffffffffffffffff1673ffffffffffffffffffffffffffffffffffffffff16815260200190815260200160002054905060008160006004015461053b9190610b62565b90507f1bd3c820742597d2bd9378b77a42081c5f5e565b6e3a64259d9e2ecde0c9ef6e60006004015482604051610573929190610b96565b60405180910390a1806000600401819055506000600660003373ffffffffffffffffffffffffffffffffffffffff1673ffffffffffffffffffffffffffffffffffffffff16815260200190815260200160002081905550505050565b6000600660008373ffffffffffffffffffffffffffffffffffffffff1673ffffffffffffffffffffffffffffffffffffffff168152602001908152602001600020549050919050565b60008060040154905090565b6000600301548042111561066f57806040517f691e568200000000000000000000000000000000000000000000000000000000815260040161066691906108fc565b60405180910390fd5b6000821161067c57600080fd5b60008260006004015461068f9190610bbf565b90507f1bd3c820742597d2bd9378b77a42081c5f5e565b6e3a64259d9e2ecde0c9ef6e600060040154826040516106c7929190610b96565b60405180910390a182600660003373ffffffffffffffffffffffffffffffffffffffff1673ffffffffffffffffffffffffffffffffffffffff168152602001908152602001600020600082825461071e9190610bbf565b92505081905550806000600401819055506000600201546000600401541061076f576001600060050160006101000a81548160ff0219169083600281111561076957610768610a54565b5b02179055505b505050565b60008060000160009054906101000a900473ffffffffffffffffffffffffffffffffffffffff16908060010180546107ab90610c44565b80601f01602080910402602001604051908101604052809291908181526020018280546107d790610c44565b80156108245780601f106107f957610100808354040283529160200191610824565b820191906000526020600020905b81548152906001019060200180831161080757829003601f168201915b5050505050908060020154908060030154908060040154908060050160009054906101000a900460ff16905086565b600080fd5b600073ffffffffffffffffffffffffffffffffffffffff82169050919050565b600061088382610858565b9050919050565b61089381610878565b811461089e57600080fd5b50565b6000813590506108b08161088a565b92915050565b6000602082840312156108cc576108cb610853565b5b60006108da848285016108a1565b91505092915050565b6000819050919050565b6108f6816108e3565b82525050565b600060208201905061091160008301846108ed565b92915050565b61092081610878565b82525050565b600060208201905061093b6000830184610917565b92915050565b61094a816108e3565b811461095557600080fd5b50565b60008135905061096781610941565b92915050565b60006020828403121561098357610982610853565b5b600061099184828501610958565b91505092915050565b60006109a582610858565b9050919050565b6109b58161099a565b82525050565b600081519050919050565b600082825260208201905092915050565b60005b838110156109f55780820151818401526020810190506109da565b83811115610a04576000848401525b50505050565b6000601f19601f8301169050919050565b6000610a26826109bb565b610a3081856109c6565b9350610a408185602086016109d7565b610a4981610a0a565b840191505092915050565b7f4e487b7100000000000000000000000000000000000000000000000000000000600052602160045260246000fd5b60038110610a9457610a93610a54565b5b50565b6000819050610aa582610a83565b919050565b6000610ab582610a97565b9050919050565b610ac581610aaa565b82525050565b600060c082019050610ae060008301896109ac565b8181036020830152610af28188610a1b565b9050610b0160408301876108ed565b610b0e60608301866108ed565b610b1b60808301856108ed565b610b2860a0830184610abc565b979650505050505050565b7f4e487b7100000000000000000000000000000000000000000000000000000000600052601160045260246000fd5b6000610b6d826108e3565b9150610b78836108e3565b925082821015610b8b57610b8a610b33565b5b828203905092915050565b6000604082019050610bab60008301856108ed565b610bb860208301846108ed565b9392505050565b6000610bca826108e3565b9150610bd5836108e3565b9250827fffffffffffffffffffffffffffffffffffffffffffffffffffffffffffffffff03821115610c0a57610c09610b33565b5b828201905092915050565b7f4e487b7100000000000000000000000000000000000000000000000000000000600052602260045260246000fd5b60006002820490506001821680610c5c57607f821691505b60208210811415610c7057610c6f610c15565b5b5091905056fea26469706673582212207b53e1533e4f0bb087d7029c65b6bd9308a4bbd19fd991904355b57b47a6bd4e64736f6c63430008090033",
          "opcodes": "PUSH1 0x80 PUSH1 0x40 MSTORE CALLVALUE DUP1 ISZERO PUSH3 0x11 JUMPI PUSH1 0x0 DUP1 REVERT JUMPDEST POP PUSH1 0x40 MLOAD PUSH3 0x1281 CODESIZE SUB DUP1 PUSH3 0x1281 DUP4 CODECOPY DUP2 DUP2 ADD PUSH1 0x40 MSTORE DUP2 ADD SWAP1 PUSH3 0x37 SWAP2 SWAP1 PUSH3 0x3E1 JUMP JUMPDEST CALLER PUSH1 0x0 DUP1 ADD PUSH1 0x0 PUSH2 0x100 EXP DUP2 SLOAD DUP2 PUSH20 0xFFFFFFFFFFFFFFFFFFFFFFFFFFFFFFFFFFFFFFFF MUL NOT AND SWAP1 DUP4 PUSH20 0xFFFFFFFFFFFFFFFFFFFFFFFFFFFFFFFFFFFFFFFF AND MUL OR SWAP1 SSTORE POP DUP3 PUSH1 0x0 PUSH1 0x1 ADD SWAP1 DUP1 MLOAD SWAP1 PUSH1 0x20 ADD SWAP1 PUSH3 0x95 SWAP3 SWAP2 SWAP1 PUSH3 0x114 JUMP JUMPDEST POP PUSH3 0x15180 DUP3 PUSH3 0xA7 SWAP2 SWAP1 PUSH3 0x48B JUMP JUMPDEST PUSH8 0xFFFFFFFFFFFFFFFF AND TIMESTAMP PUSH3 0xBE SWAP2 SWAP1 PUSH3 0x4D4 JUMP JUMPDEST PUSH1 0x0 PUSH1 0x3 ADD DUP2 SWAP1 SSTORE POP DUP1 PUSH1 0x0 PUSH1 0x2 ADD DUP2 SWAP1 SSTORE POP PUSH1 0x0 DUP1 PUSH1 0x4 ADD DUP2 SWAP1 SSTORE POP PUSH1 0x0 DUP1 PUSH1 0x5 ADD PUSH1 0x0 PUSH2 0x100 EXP DUP2 SLOAD DUP2 PUSH1 0xFF MUL NOT AND SWAP1 DUP4 PUSH1 0x2 DUP2 GT ISZERO PUSH3 0x106 JUMPI PUSH3 0x105 PUSH3 0x531 JUMP JUMPDEST JUMPDEST MUL OR SWAP1 SSTORE POP POP POP POP PUSH3 0x5C5 JUMP JUMPDEST DUP3 DUP1 SLOAD PUSH3 0x122 SWAP1 PUSH3 0x58F JUMP JUMPDEST SWAP1 PUSH1 0x0 MSTORE PUSH1 0x20 PUSH1 0x0 KECCAK256 SWAP1 PUSH1 0x1F ADD PUSH1 0x20 SWAP1 DIV DUP2 ADD SWAP3 DUP3 PUSH3 0x146 JUMPI PUSH1 0x0 DUP6 SSTORE PUSH3 0x192 JUMP JUMPDEST DUP3 PUSH1 0x1F LT PUSH3 0x161 JUMPI DUP1 MLOAD PUSH1 0xFF NOT AND DUP4 DUP1 ADD OR DUP6 SSTORE PUSH3 0x192 JUMP JUMPDEST DUP3 DUP1 ADD PUSH1 0x1 ADD DUP6 SSTORE DUP3 ISZERO PUSH3 0x192 JUMPI SWAP2 DUP3 ADD JUMPDEST DUP3 DUP2 GT ISZERO PUSH3 0x191 JUMPI DUP3 MLOAD DUP3 SSTORE SWAP2 PUSH1 0x20 ADD SWAP2 SWAP1 PUSH1 0x1 ADD SWAP1 PUSH3 0x174 JUMP JUMPDEST JUMPDEST POP SWAP1 POP PUSH3 0x1A1 SWAP2 SWAP1 PUSH3 0x1A5 JUMP JUMPDEST POP SWAP1 JUMP JUMPDEST JUMPDEST DUP1 DUP3 GT ISZERO PUSH3 0x1C0 JUMPI PUSH1 0x0 DUP2 PUSH1 0x0 SWAP1 SSTORE POP PUSH1 0x1 ADD PUSH3 0x1A6 JUMP JUMPDEST POP SWAP1 JUMP JUMPDEST PUSH1 0x0 PUSH1 0x40 MLOAD SWAP1 POP SWAP1 JUMP JUMPDEST PUSH1 0x0 DUP1 REVERT JUMPDEST PUSH1 0x0 DUP1 REVERT JUMPDEST PUSH1 0x0 DUP1 REVERT JUMPDEST PUSH1 0x0 DUP1 REVERT JUMPDEST PUSH1 0x0 PUSH1 0x1F NOT PUSH1 0x1F DUP4 ADD AND SWAP1 POP SWAP2 SWAP1 POP JUMP JUMPDEST PUSH32 0x4E487B7100000000000000000000000000000000000000000000000000000000 PUSH1 0x0 MSTORE PUSH1 0x41 PUSH1 0x4 MSTORE PUSH1 0x24 PUSH1 0x0 REVERT JUMPDEST PUSH3 0x22D DUP3 PUSH3 0x1E2 JUMP JUMPDEST DUP2 ADD DUP2 DUP2 LT PUSH8 0xFFFFFFFFFFFFFFFF DUP3 GT OR ISZERO PUSH3 0x24F JUMPI PUSH3 0x24E PUSH3 0x1F3 JUMP JUMPDEST JUMPDEST DUP1 PUSH1 0x40 MSTORE POP POP POP JUMP JUMPDEST PUSH1 0x0 PUSH3 0x264 PUSH3 0x1C4 JUMP JUMPDEST SWAP1 POP PUSH3 0x272 DUP3 DUP3 PUSH3 0x222 JUMP JUMPDEST SWAP2 SWAP1 POP JUMP JUMPDEST PUSH1 0x0 PUSH8 0xFFFFFFFFFFFFFFFF DUP3 GT ISZERO PUSH3 0x295 JUMPI PUSH3 0x294 PUSH3 0x1F3 JUMP JUMPDEST JUMPDEST PUSH3 0x2A0 DUP3 PUSH3 0x1E2 JUMP JUMPDEST SWAP1 POP PUSH1 0x20 DUP2 ADD SWAP1 POP SWAP2 SWAP1 POP JUMP JUMPDEST PUSH1 0x0 JUMPDEST DUP4 DUP2 LT ISZERO PUSH3 0x2CD JUMPI DUP1 DUP3 ADD MLOAD DUP2 DUP5 ADD MSTORE PUSH1 0x20 DUP2 ADD SWAP1 POP PUSH3 0x2B0 JUMP JUMPDEST DUP4 DUP2 GT ISZERO PUSH3 0x2DD JUMPI PUSH1 0x0 DUP5 DUP5 ADD MSTORE JUMPDEST POP POP POP POP JUMP JUMPDEST PUSH1 0x0 PUSH3 0x2FA PUSH3 0x2F4 DUP5 PUSH3 0x277 JUMP JUMPDEST PUSH3 0x258 JUMP JUMPDEST SWAP1 POP DUP3 DUP2 MSTORE PUSH1 0x20 DUP2 ADD DUP5 DUP5 DUP5 ADD GT ISZERO PUSH3 0x319 JUMPI PUSH3 0x318 PUSH3 0x1DD JUMP JUMPDEST JUMPDEST PUSH3 0x326 DUP5 DUP3 DUP6 PUSH3 0x2AD JUMP JUMPDEST POP SWAP4 SWAP3 POP POP POP JUMP JUMPDEST PUSH1 0x0 DUP3 PUSH1 0x1F DUP4 ADD SLT PUSH3 0x346 JUMPI PUSH3 0x345 PUSH3 0x1D8 JUMP JUMPDEST JUMPDEST DUP2 MLOAD PUSH3 0x358 DUP5 DUP3 PUSH1 0x20 DUP7 ADD PUSH3 0x2E3 JUMP JUMPDEST SWAP2 POP POP SWAP3 SWAP2 POP POP JUMP JUMPDEST PUSH1 0x0 PUSH8 0xFFFFFFFFFFFFFFFF DUP3 AND SWAP1 POP SWAP2 SWAP1 POP JUMP JUMPDEST PUSH3 0x380 DUP2 PUSH3 0x361 JUMP JUMPDEST DUP2 EQ PUSH3 0x38C JUMPI PUSH1 0x0 DUP1 REVERT JUMPDEST POP JUMP JUMPDEST PUSH1 0x0 DUP2 MLOAD SWAP1 POP PUSH3 0x3A0 DUP2 PUSH3 0x375 JUMP JUMPDEST SWAP3 SWAP2 POP POP JUMP JUMPDEST PUSH1 0x0 DUP2 SWAP1 POP SWAP2 SWAP1 POP JUMP JUMPDEST PUSH3 0x3BB DUP2 PUSH3 0x3A6 JUMP JUMPDEST DUP2 EQ PUSH3 0x3C7 JUMPI PUSH1 0x0 DUP1 REVERT JUMPDEST POP JUMP JUMPDEST PUSH1 0x0 DUP2 MLOAD SWAP1 POP PUSH3 0x3DB DUP2 PUSH3 0x3B0 JUMP JUMPDEST SWAP3 SWAP2 POP POP JUMP JUMPDEST PUSH1 0x0 DUP1 PUSH1 0x0 PUSH1 0x60 DUP5 DUP7 SUB SLT ISZERO PUSH3 0x3FD JUMPI PUSH3 0x3FC PUSH3 0x1CE JUMP JUMPDEST JUMPDEST PUSH1 0x0 DUP5 ADD MLOAD PUSH8 0xFFFFFFFFFFFFFFFF DUP2 GT ISZERO PUSH3 0x41E JUMPI PUSH3 0x41D PUSH3 0x1D3 JUMP JUMPDEST JUMPDEST PUSH3 0x42C DUP7 DUP3 DUP8 ADD PUSH3 0x32E JUMP JUMPDEST SWAP4 POP POP PUSH1 0x20 PUSH3 0x43F DUP7 DUP3 DUP8 ADD PUSH3 0x38F JUMP JUMPDEST SWAP3 POP POP PUSH1 0x40 PUSH3 0x452 DUP7 DUP3 DUP8 ADD PUSH3 0x3CA JUMP JUMPDEST SWAP2 POP POP SWAP3 POP SWAP3 POP SWAP3 JUMP JUMPDEST PUSH32 0x4E487B7100000000000000000000000000000000000000000000000000000000 PUSH1 0x0 MSTORE PUSH1 0x11 PUSH1 0x4 MSTORE PUSH1 0x24 PUSH1 0x0 REVERT JUMPDEST PUSH1 0x0 PUSH3 0x498 DUP3 PUSH3 0x361 JUMP JUMPDEST SWAP2 POP PUSH3 0x4A5 DUP4 PUSH3 0x361 JUMP JUMPDEST SWAP3 POP DUP2 PUSH8 0xFFFFFFFFFFFFFFFF DIV DUP4 GT DUP3 ISZERO ISZERO AND ISZERO PUSH3 0x4C9 JUMPI PUSH3 0x4C8 PUSH3 0x45C JUMP JUMPDEST JUMPDEST DUP3 DUP3 MUL SWAP1 POP SWAP3 SWAP2 POP POP JUMP JUMPDEST PUSH1 0x0 PUSH3 0x4E1 DUP3 PUSH3 0x3A6 JUMP JUMPDEST SWAP2 POP PUSH3 0x4EE DUP4 PUSH3 0x3A6 JUMP JUMPDEST SWAP3 POP DUP3 PUSH32 0xFFFFFFFFFFFFFFFFFFFFFFFFFFFFFFFFFFFFFFFFFFFFFFFFFFFFFFFFFFFFFFFF SUB DUP3 GT ISZERO PUSH3 0x526 JUMPI PUSH3 0x525 PUSH3 0x45C JUMP JUMPDEST JUMPDEST DUP3 DUP3 ADD SWAP1 POP SWAP3 SWAP2 POP POP JUMP JUMPDEST PUSH32 0x4E487B7100000000000000000000000000000000000000000000000000000000 PUSH1 0x0 MSTORE PUSH1 0x21 PUSH1 0x4 MSTORE PUSH1 0x24 PUSH1 0x0 REVERT JUMPDEST PUSH32 0x4E487B7100000000000000000000000000000000000000000000000000000000 PUSH1 0x0 MSTORE PUSH1 0x22 PUSH1 0x4 MSTORE PUSH1 0x24 PUSH1 0x0 REVERT JUMPDEST PUSH1 0x0 PUSH1 0x2 DUP3 DIV SWAP1 POP PUSH1 0x1 DUP3 AND DUP1 PUSH3 0x5A8 JUMPI PUSH1 0x7F DUP3 AND SWAP2 POP JUMPDEST PUSH1 0x20 DUP3 LT DUP2 EQ ISZERO PUSH3 0x5BF JUMPI PUSH3 0x5BE PUSH3 0x560 JUMP JUMPDEST JUMPDEST POP SWAP2 SWAP1 POP JUMP JUMPDEST PUSH2 0xCAC DUP1 PUSH3 0x5D5 PUSH1 0x0 CODECOPY PUSH1 0x0 RETURN INVALID PUSH1 0x80 PUSH1 0x40 MSTORE PUSH1 0x4 CALLDATASIZE LT PUSH2 0x91 JUMPI PUSH1 0x0 CALLDATALOAD PUSH1 0xE0 SHR DUP1 PUSH4 0xB2D5AE44 GT PUSH2 0x59 JUMPI DUP1 PUSH4 0xB2D5AE44 EQ PUSH2 0x14A JUMPI DUP1 PUSH4 0xD949473F EQ PUSH2 0x154 JUMPI DUP1 PUSH4 0xF0EA4BFC EQ PUSH2 0x191 JUMPI DUP1 PUSH4 0xF14FAF6F EQ PUSH2 0x1BC JUMPI DUP1 PUSH4 0xF60CA60D EQ PUSH2 0x1D8 JUMPI PUSH2 0x91 JUMP JUMPDEST DUP1 PUSH4 0x31B3677 EQ PUSH2 0x96 JUMPI DUP1 PUSH4 0x12065FE0 EQ PUSH2 0xD3 JUMPI DUP1 PUSH4 0x4E71D92D EQ PUSH2 0xFE JUMPI DUP1 PUSH4 0x7F9F86B6 EQ PUSH2 0x108 JUMPI DUP1 PUSH4 0x8DA5CB5B EQ PUSH2 0x11F JUMPI JUMPDEST PUSH1 0x0 DUP1 REVERT JUMPDEST CALLVALUE DUP1 ISZERO PUSH2 0xA2 JUMPI PUSH1 0x0 DUP1 REVERT JUMPDEST POP PUSH2 0xBD PUSH1 0x4 DUP1 CALLDATASIZE SUB DUP2 ADD SWAP1 PUSH2 0xB8 SWAP2 SWAP1 PUSH2 0x8B6 JUMP JUMPDEST PUSH2 0x208 JUMP JUMPDEST PUSH1 0x40 MLOAD PUSH2 0xCA SWAP2 SWAP1 PUSH2 0x8FC JUMP JUMPDEST PUSH1 0x40 MLOAD DUP1 SWAP2 SUB SWAP1 RETURN JUMPDEST CALLVALUE DUP1 ISZERO PUSH2 0xDF JUMPI PUSH1 0x0 DUP1 REVERT JUMPDEST POP PUSH2 0xE8 PUSH2 0x220 JUMP JUMPDEST PUSH1 0x40 MLOAD PUSH2 0xF5 SWAP2 SWAP1 PUSH2 0x8FC JUMP JUMPDEST PUSH1 0x40 MLOAD DUP1 SWAP2 SUB SWAP1 RETURN JUMPDEST PUSH2 0x106 PUSH2 0x228 JUMP JUMPDEST STOP JUMPDEST CALLVALUE DUP1 ISZERO PUSH2 0x114 JUMPI PUSH1 0x0 DUP1 REVERT JUMPDEST POP PUSH2 0x11D PUSH2 0x396 JUMP JUMPDEST STOP JUMPDEST CALLVALUE DUP1 ISZERO PUSH2 0x12B JUMPI PUSH1 0x0 DUP1 REVERT JUMPDEST POP PUSH2 0x134 PUSH2 0x40C JUMP JUMPDEST PUSH1 0x40 MLOAD PUSH2 0x141 SWAP2 SWAP1 PUSH2 0x926 JUMP JUMPDEST PUSH1 0x40 MLOAD DUP1 SWAP2 SUB SWAP1 RETURN JUMPDEST PUSH2 0x152 PUSH2 0x438 JUMP JUMPDEST STOP JUMPDEST CALLVALUE DUP1 ISZERO PUSH2 0x160 JUMPI PUSH1 0x0 DUP1 REVERT JUMPDEST POP PUSH2 0x17B PUSH1 0x4 DUP1 CALLDATASIZE SUB DUP2 ADD SWAP1 PUSH2 0x176 SWAP2 SWAP1 PUSH2 0x8B6 JUMP JUMPDEST PUSH2 0x5CF JUMP JUMPDEST PUSH1 0x40 MLOAD PUSH2 0x188 SWAP2 SWAP1 PUSH2 0x8FC JUMP JUMPDEST PUSH1 0x40 MLOAD DUP1 SWAP2 SUB SWAP1 RETURN JUMPDEST CALLVALUE DUP1 ISZERO PUSH2 0x19D JUMPI PUSH1 0x0 DUP1 REVERT JUMPDEST POP PUSH2 0x1A6 PUSH2 0x618 JUMP JUMPDEST PUSH1 0x40 MLOAD PUSH2 0x1B3 SWAP2 SWAP1 PUSH2 0x8FC JUMP JUMPDEST PUSH1 0x40 MLOAD DUP1 SWAP2 SUB SWAP1 RETURN JUMPDEST PUSH2 0x1D6 PUSH1 0x4 DUP1 CALLDATASIZE SUB DUP2 ADD SWAP1 PUSH2 0x1D1 SWAP2 SWAP1 PUSH2 0x96D JUMP JUMPDEST PUSH2 0x624 JUMP JUMPDEST STOP JUMPDEST CALLVALUE DUP1 ISZERO PUSH2 0x1E4 JUMPI PUSH1 0x0 DUP1 REVERT JUMPDEST POP PUSH2 0x1ED PUSH2 0x774 JUMP JUMPDEST PUSH1 0x40 MLOAD PUSH2 0x1FF SWAP7 SWAP6 SWAP5 SWAP4 SWAP3 SWAP2 SWAP1 PUSH2 0xACB JUMP JUMPDEST PUSH1 0x40 MLOAD DUP1 SWAP2 SUB SWAP1 RETURN JUMPDEST PUSH1 0x6 PUSH1 0x20 MSTORE DUP1 PUSH1 0x0 MSTORE PUSH1 0x40 PUSH1 0x0 KECCAK256 PUSH1 0x0 SWAP2 POP SWAP1 POP SLOAD DUP2 JUMP JUMPDEST PUSH1 0x0 SELFBALANCE SWAP1 POP SWAP1 JUMP JUMPDEST PUSH1 0x0 PUSH1 0x3 ADD SLOAD DUP1 TIMESTAMP GT PUSH2 0x272 JUMPI DUP1 PUSH1 0x40 MLOAD PUSH32 0x2A35A32400000000000000000000000000000000000000000000000000000000 DUP2 MSTORE PUSH1 0x4 ADD PUSH2 0x269 SWAP2 SWAP1 PUSH2 0x8FC JUMP JUMPDEST PUSH1 0x40 MLOAD DUP1 SWAP2 SUB SWAP1 REVERT JUMPDEST PUSH1 0x0 PUSH1 0x2 ADD SLOAD PUSH1 0x0 PUSH1 0x4 ADD SLOAD LT ISZERO PUSH2 0x289 JUMPI PUSH1 0x0 DUP1 REVERT JUMPDEST PUSH1 0x1 PUSH1 0x2 DUP2 GT ISZERO PUSH2 0x29D JUMPI PUSH2 0x29C PUSH2 0xA54 JUMP JUMPDEST JUMPDEST PUSH1 0x0 PUSH1 0x5 ADD PUSH1 0x0 SWAP1 SLOAD SWAP1 PUSH2 0x100 EXP SWAP1 DIV PUSH1 0xFF AND PUSH1 0x2 DUP2 GT ISZERO PUSH2 0x2C2 JUMPI PUSH2 0x2C1 PUSH2 0xA54 JUMP JUMPDEST JUMPDEST EQ PUSH2 0x2CC JUMPI PUSH1 0x0 DUP1 REVERT JUMPDEST PUSH1 0x0 DUP1 ADD PUSH1 0x0 SWAP1 SLOAD SWAP1 PUSH2 0x100 EXP SWAP1 DIV PUSH20 0xFFFFFFFFFFFFFFFFFFFFFFFFFFFFFFFFFFFFFFFF AND PUSH20 0xFFFFFFFFFFFFFFFFFFFFFFFFFFFFFFFFFFFFFFFF AND CALLER PUSH20 0xFFFFFFFFFFFFFFFFFFFFFFFFFFFFFFFFFFFFFFFF AND EQ PUSH2 0x328 JUMPI PUSH1 0x0 DUP1 REVERT JUMPDEST PUSH1 0x0 DUP1 ADD PUSH1 0x0 SWAP1 SLOAD SWAP1 PUSH2 0x100 EXP SWAP1 DIV PUSH20 0xFFFFFFFFFFFFFFFFFFFFFFFFFFFFFFFFFFFFFFFF AND PUSH20 0xFFFFFFFFFFFFFFFFFFFFFFFFFFFFFFFFFFFFFFFF AND PUSH2 0x8FC SELFBALANCE SWAP1 DUP2 ISZERO MUL SWAP1 PUSH1 0x40 MLOAD PUSH1 0x0 PUSH1 0x40 MLOAD DUP1 DUP4 SUB DUP2 DUP6 DUP9 DUP9 CALL SWAP4 POP POP POP POP ISZERO DUP1 ISZERO PUSH2 0x392 JUMPI RETURNDATASIZE PUSH1 0x0 DUP1 RETURNDATACOPY RETURNDATASIZE PUSH1 0x0 REVERT JUMPDEST POP POP JUMP JUMPDEST CALLER PUSH20 0xFFFFFFFFFFFFFFFFFFFFFFFFFFFFFFFFFFFFFFFF AND PUSH1 0x0 DUP1 ADD PUSH1 0x0 SWAP1 SLOAD SWAP1 PUSH2 0x100 EXP SWAP1 DIV PUSH20 0xFFFFFFFFFFFFFFFFFFFFFFFFFFFFFFFFFFFFFFFF AND PUSH20 0xFFFFFFFFFFFFFFFFFFFFFFFFFFFFFFFFFFFFFFFF AND EQ PUSH2 0x3F2 JUMPI PUSH1 0x0 DUP1 REVERT JUMPDEST PUSH3 0x15180 TIMESTAMP PUSH2 0x401 SWAP2 SWAP1 PUSH2 0xB62 JUMP JUMPDEST PUSH1 0x0 PUSH1 0x3 ADD DUP2 SWAP1 SSTORE POP JUMP JUMPDEST PUSH1 0x0 DUP1 PUSH1 0x0 ADD PUSH1 0x0 SWAP1 SLOAD SWAP1 PUSH2 0x100 EXP SWAP1 DIV PUSH20 0xFFFFFFFFFFFFFFFFFFFFFFFFFFFFFFFFFFFFFFFF AND SWAP1 POP SWAP1 JUMP JUMPDEST PUSH1 0x0 PUSH1 0x3 ADD SLOAD DUP1 TIMESTAMP GT PUSH2 0x482 JUMPI DUP1 PUSH1 0x40 MLOAD PUSH32 0x2A35A32400000000000000000000000000000000000000000000000000000000 DUP2 MSTORE PUSH1 0x4 ADD PUSH2 0x479 SWAP2 SWAP1 PUSH2 0x8FC JUMP JUMPDEST PUSH1 0x40 MLOAD DUP1 SWAP2 SUB SWAP1 REVERT JUMPDEST PUSH1 0x0 PUSH1 0x2 ADD SLOAD PUSH1 0x0 PUSH1 0x4 ADD SLOAD LT PUSH2 0x498 JUMPI PUSH1 0x0 DUP1 REVERT JUMPDEST PUSH1 0x0 PUSH1 0x6 PUSH1 0x0 CALLER PUSH20 0xFFFFFFFFFFFFFFFFFFFFFFFFFFFFFFFFFFFFFFFF AND PUSH20 0xFFFFFFFFFFFFFFFFFFFFFFFFFFFFFFFFFFFFFFFF AND DUP2 MSTORE PUSH1 0x20 ADD SWAP1 DUP2 MSTORE PUSH1 0x20 ADD PUSH1 0x0 KECCAK256 SLOAD GT PUSH2 0x4E4 JUMPI PUSH1 0x0 DUP1 REVERT JUMPDEST PUSH1 0x0 PUSH1 0x6 PUSH1 0x0 CALLER PUSH20 0xFFFFFFFFFFFFFFFFFFFFFFFFFFFFFFFFFFFFFFFF AND PUSH20 0xFFFFFFFFFFFFFFFFFFFFFFFFFFFFFFFFFFFFFFFF AND DUP2 MSTORE PUSH1 0x20 ADD SWAP1 DUP2 MSTORE PUSH1 0x20 ADD PUSH1 0x0 KECCAK256 SLOAD SWAP1 POP PUSH1 0x0 DUP2 PUSH1 0x0 PUSH1 0x4 ADD SLOAD PUSH2 0x53B SWAP2 SWAP1 PUSH2 0xB62 JUMP JUMPDEST SWAP1 POP PUSH32 0x1BD3C820742597D2BD9378B77A42081C5F5E565B6E3A64259D9E2ECDE0C9EF6E PUSH1 0x0 PUSH1 0x4 ADD SLOAD DUP3 PUSH1 0x40 MLOAD PUSH2 0x573 SWAP3 SWAP2 SWAP1 PUSH2 0xB96 JUMP JUMPDEST PUSH1 0x40 MLOAD DUP1 SWAP2 SUB SWAP1 LOG1 DUP1 PUSH1 0x0 PUSH1 0x4 ADD DUP2 SWAP1 SSTORE POP PUSH1 0x0 PUSH1 0x6 PUSH1 0x0 CALLER PUSH20 0xFFFFFFFFFFFFFFFFFFFFFFFFFFFFFFFFFFFFFFFF AND PUSH20 0xFFFFFFFFFFFFFFFFFFFFFFFFFFFFFFFFFFFFFFFF AND DUP2 MSTORE PUSH1 0x20 ADD SWAP1 DUP2 MSTORE PUSH1 0x20 ADD PUSH1 0x0 KECCAK256 DUP2 SWAP1 SSTORE POP POP POP POP JUMP JUMPDEST PUSH1 0x0 PUSH1 0x6 PUSH1 0x0 DUP4 PUSH20 0xFFFFFFFFFFFFFFFFFFFFFFFFFFFFFFFFFFFFFFFF AND PUSH20 0xFFFFFFFFFFFFFFFFFFFFFFFFFFFFFFFFFFFFFFFF AND DUP2 MSTORE PUSH1 0x20 ADD SWAP1 DUP2 MSTORE PUSH1 0x20 ADD PUSH1 0x0 KECCAK256 SLOAD SWAP1 POP SWAP2 SWAP1 POP JUMP JUMPDEST PUSH1 0x0 DUP1 PUSH1 0x4 ADD SLOAD SWAP1 POP SWAP1 JUMP JUMPDEST PUSH1 0x0 PUSH1 0x3 ADD SLOAD DUP1 TIMESTAMP GT ISZERO PUSH2 0x66F JUMPI DUP1 PUSH1 0x40 MLOAD PUSH32 0x691E568200000000000000000000000000000000000000000000000000000000 DUP2 MSTORE PUSH1 0x4 ADD PUSH2 0x666 SWAP2 SWAP1 PUSH2 0x8FC JUMP JUMPDEST PUSH1 0x40 MLOAD DUP1 SWAP2 SUB SWAP1 REVERT JUMPDEST PUSH1 0x0 DUP3 GT PUSH2 0x67C JUMPI PUSH1 0x0 DUP1 REVERT JUMPDEST PUSH1 0x0 DUP3 PUSH1 0x0 PUSH1 0x4 ADD SLOAD PUSH2 0x68F SWAP2 SWAP1 PUSH2 0xBBF JUMP JUMPDEST SWAP1 POP PUSH32 0x1BD3C820742597D2BD9378B77A42081C5F5E565B6E3A64259D9E2ECDE0C9EF6E PUSH1 0x0 PUSH1 0x4 ADD SLOAD DUP3 PUSH1 0x40 MLOAD PUSH2 0x6C7 SWAP3 SWAP2 SWAP1 PUSH2 0xB96 JUMP JUMPDEST PUSH1 0x40 MLOAD DUP1 SWAP2 SUB SWAP1 LOG1 DUP3 PUSH1 0x6 PUSH1 0x0 CALLER PUSH20 0xFFFFFFFFFFFFFFFFFFFFFFFFFFFFFFFFFFFFFFFF AND PUSH20 0xFFFFFFFFFFFFFFFFFFFFFFFFFFFFFFFFFFFFFFFF AND DUP2 MSTORE PUSH1 0x20 ADD SWAP1 DUP2 MSTORE PUSH1 0x20 ADD PUSH1 0x0 KECCAK256 PUSH1 0x0 DUP3 DUP3 SLOAD PUSH2 0x71E SWAP2 SWAP1 PUSH2 0xBBF JUMP JUMPDEST SWAP3 POP POP DUP2 SWAP1 SSTORE POP DUP1 PUSH1 0x0 PUSH1 0x4 ADD DUP2 SWAP1 SSTORE POP PUSH1 0x0 PUSH1 0x2 ADD SLOAD PUSH1 0x0 PUSH1 0x4 ADD SLOAD LT PUSH2 0x76F JUMPI PUSH1 0x1 PUSH1 0x0 PUSH1 0x5 ADD PUSH1 0x0 PUSH2 0x100 EXP DUP2 SLOAD DUP2 PUSH1 0xFF MUL NOT AND SWAP1 DUP4 PUSH1 0x2 DUP2 GT ISZERO PUSH2 0x769 JUMPI PUSH2 0x768 PUSH2 0xA54 JUMP JUMPDEST JUMPDEST MUL OR SWAP1 SSTORE POP JUMPDEST POP POP POP JUMP JUMPDEST PUSH1 0x0 DUP1 PUSH1 0x0 ADD PUSH1 0x0 SWAP1 SLOAD SWAP1 PUSH2 0x100 EXP SWAP1 DIV PUSH20 0xFFFFFFFFFFFFFFFFFFFFFFFFFFFFFFFFFFFFFFFF AND SWAP1 DUP1 PUSH1 0x1 ADD DUP1 SLOAD PUSH2 0x7AB SWAP1 PUSH2 0xC44 JUMP JUMPDEST DUP1 PUSH1 0x1F ADD PUSH1 0x20 DUP1 SWAP2 DIV MUL PUSH1 0x20 ADD PUSH1 0x40 MLOAD SWAP1 DUP2 ADD PUSH1 0x40 MSTORE DUP1 SWAP3 SWAP2 SWAP1 DUP2 DUP2 MSTORE PUSH1 0x20 ADD DUP3 DUP1 SLOAD PUSH2 0x7D7 SWAP1 PUSH2 0xC44 JUMP JUMPDEST DUP1 ISZERO PUSH2 0x824 JUMPI DUP1 PUSH1 0x1F LT PUSH2 0x7F9 JUMPI PUSH2 0x100 DUP1 DUP4 SLOAD DIV MUL DUP4 MSTORE SWAP2 PUSH1 0x20 ADD SWAP2 PUSH2 0x824 JUMP JUMPDEST DUP3 ADD SWAP2 SWAP1 PUSH1 0x0 MSTORE PUSH1 0x20 PUSH1 0x0 KECCAK256 SWAP1 JUMPDEST DUP2 SLOAD DUP2 MSTORE SWAP1 PUSH1 0x1 ADD SWAP1 PUSH1 0x20 ADD DUP1 DUP4 GT PUSH2 0x807 JUMPI DUP3 SWAP1 SUB PUSH1 0x1F AND DUP3 ADD SWAP2 JUMPDEST POP POP POP POP POP SWAP1 DUP1 PUSH1 0x2 ADD SLOAD SWAP1 DUP1 PUSH1 0x3 ADD SLOAD SWAP1 DUP1 PUSH1 0x4 ADD SLOAD SWAP1 DUP1 PUSH1 0x5 ADD PUSH1 0x0 SWAP1 SLOAD SWAP1 PUSH2 0x100 EXP SWAP1 DIV PUSH1 0xFF AND SWAP1 POP DUP7 JUMP JUMPDEST PUSH1 0x0 DUP1 REVERT JUMPDEST PUSH1 0x0 PUSH20 0xFFFFFFFFFFFFFFFFFFFFFFFFFFFFFFFFFFFFFFFF DUP3 AND SWAP1 POP SWAP2 SWAP1 POP JUMP JUMPDEST PUSH1 0x0 PUSH2 0x883 DUP3 PUSH2 0x858 JUMP JUMPDEST SWAP1 POP SWAP2 SWAP1 POP JUMP JUMPDEST PUSH2 0x893 DUP2 PUSH2 0x878 JUMP JUMPDEST DUP2 EQ PUSH2 0x89E JUMPI PUSH1 0x0 DUP1 REVERT JUMPDEST POP JUMP JUMPDEST PUSH1 0x0 DUP2 CALLDATALOAD SWAP1 POP PUSH2 0x8B0 DUP2 PUSH2 0x88A JUMP JUMPDEST SWAP3 SWAP2 POP POP JUMP JUMPDEST PUSH1 0x0 PUSH1 0x20 DUP3 DUP5 SUB SLT ISZERO PUSH2 0x8CC JUMPI PUSH2 0x8CB PUSH2 0x853 JUMP JUMPDEST JUMPDEST PUSH1 0x0 PUSH2 0x8DA DUP5 DUP3 DUP6 ADD PUSH2 0x8A1 JUMP JUMPDEST SWAP2 POP POP SWAP3 SWAP2 POP POP JUMP JUMPDEST PUSH1 0x0 DUP2 SWAP1 POP SWAP2 SWAP1 POP JUMP JUMPDEST PUSH2 0x8F6 DUP2 PUSH2 0x8E3 JUMP JUMPDEST DUP3 MSTORE POP POP JUMP JUMPDEST PUSH1 0x0 PUSH1 0x20 DUP3 ADD SWAP1 POP PUSH2 0x911 PUSH1 0x0 DUP4 ADD DUP5 PUSH2 0x8ED JUMP JUMPDEST SWAP3 SWAP2 POP POP JUMP JUMPDEST PUSH2 0x920 DUP2 PUSH2 0x878 JUMP JUMPDEST DUP3 MSTORE POP POP JUMP JUMPDEST PUSH1 0x0 PUSH1 0x20 DUP3 ADD SWAP1 POP PUSH2 0x93B PUSH1 0x0 DUP4 ADD DUP5 PUSH2 0x917 JUMP JUMPDEST SWAP3 SWAP2 POP POP JUMP JUMPDEST PUSH2 0x94A DUP2 PUSH2 0x8E3 JUMP JUMPDEST DUP2 EQ PUSH2 0x955 JUMPI PUSH1 0x0 DUP1 REVERT JUMPDEST POP JUMP JUMPDEST PUSH1 0x0 DUP2 CALLDATALOAD SWAP1 POP PUSH2 0x967 DUP2 PUSH2 0x941 JUMP JUMPDEST SWAP3 SWAP2 POP POP JUMP JUMPDEST PUSH1 0x0 PUSH1 0x20 DUP3 DUP5 SUB SLT ISZERO PUSH2 0x983 JUMPI PUSH2 0x982 PUSH2 0x853 JUMP JUMPDEST JUMPDEST PUSH1 0x0 PUSH2 0x991 DUP5 DUP3 DUP6 ADD PUSH2 0x958 JUMP JUMPDEST SWAP2 POP POP SWAP3 SWAP2 POP POP JUMP JUMPDEST PUSH1 0x0 PUSH2 0x9A5 DUP3 PUSH2 0x858 JUMP JUMPDEST SWAP1 POP SWAP2 SWAP1 POP JUMP JUMPDEST PUSH2 0x9B5 DUP2 PUSH2 0x99A JUMP JUMPDEST DUP3 MSTORE POP POP JUMP JUMPDEST PUSH1 0x0 DUP2 MLOAD SWAP1 POP SWAP2 SWAP1 POP JUMP JUMPDEST PUSH1 0x0 DUP3 DUP3 MSTORE PUSH1 0x20 DUP3 ADD SWAP1 POP SWAP3 SWAP2 POP POP JUMP JUMPDEST PUSH1 0x0 JUMPDEST DUP4 DUP2 LT ISZERO PUSH2 0x9F5 JUMPI DUP1 DUP3 ADD MLOAD DUP2 DUP5 ADD MSTORE PUSH1 0x20 DUP2 ADD SWAP1 POP PUSH2 0x9DA JUMP JUMPDEST DUP4 DUP2 GT ISZERO PUSH2 0xA04 JUMPI PUSH1 0x0 DUP5 DUP5 ADD MSTORE JUMPDEST POP POP POP POP JUMP JUMPDEST PUSH1 0x0 PUSH1 0x1F NOT PUSH1 0x1F DUP4 ADD AND SWAP1 POP SWAP2 SWAP1 POP JUMP JUMPDEST PUSH1 0x0 PUSH2 0xA26 DUP3 PUSH2 0x9BB JUMP JUMPDEST PUSH2 0xA30 DUP2 DUP6 PUSH2 0x9C6 JUMP JUMPDEST SWAP4 POP PUSH2 0xA40 DUP2 DUP6 PUSH1 0x20 DUP7 ADD PUSH2 0x9D7 JUMP JUMPDEST PUSH2 0xA49 DUP2 PUSH2 0xA0A JUMP JUMPDEST DUP5 ADD SWAP2 POP POP SWAP3 SWAP2 POP POP JUMP JUMPDEST PUSH32 0x4E487B7100000000000000000000000000000000000000000000000000000000 PUSH1 0x0 MSTORE PUSH1 0x21 PUSH1 0x4 MSTORE PUSH1 0x24 PUSH1 0x0 REVERT JUMPDEST PUSH1 0x3 DUP2 LT PUSH2 0xA94 JUMPI PUSH2 0xA93 PUSH2 0xA54 JUMP JUMPDEST JUMPDEST POP JUMP JUMPDEST PUSH1 0x0 DUP2 SWAP1 POP PUSH2 0xAA5 DUP3 PUSH2 0xA83 JUMP JUMPDEST SWAP2 SWAP1 POP JUMP JUMPDEST PUSH1 0x0 PUSH2 0xAB5 DUP3 PUSH2 0xA97 JUMP JUMPDEST SWAP1 POP SWAP2 SWAP1 POP JUMP JUMPDEST PUSH2 0xAC5 DUP2 PUSH2 0xAAA JUMP JUMPDEST DUP3 MSTORE POP POP JUMP JUMPDEST PUSH1 0x0 PUSH1 0xC0 DUP3 ADD SWAP1 POP PUSH2 0xAE0 PUSH1 0x0 DUP4 ADD DUP10 PUSH2 0x9AC JUMP JUMPDEST DUP2 DUP2 SUB PUSH1 0x20 DUP4 ADD MSTORE PUSH2 0xAF2 DUP2 DUP9 PUSH2 0xA1B JUMP JUMPDEST SWAP1 POP PUSH2 0xB01 PUSH1 0x40 DUP4 ADD DUP8 PUSH2 0x8ED JUMP JUMPDEST PUSH2 0xB0E PUSH1 0x60 DUP4 ADD DUP7 PUSH2 0x8ED JUMP JUMPDEST PUSH2 0xB1B PUSH1 0x80 DUP4 ADD DUP6 PUSH2 0x8ED JUMP JUMPDEST PUSH2 0xB28 PUSH1 0xA0 DUP4 ADD DUP5 PUSH2 0xABC JUMP JUMPDEST SWAP8 SWAP7 POP POP POP POP POP POP POP JUMP JUMPDEST PUSH32 0x4E487B7100000000000000000000000000000000000000000000000000000000 PUSH1 0x0 MSTORE PUSH1 0x11 PUSH1 0x4 MSTORE PUSH1 0x24 PUSH1 0x0 REVERT JUMPDEST PUSH1 0x0 PUSH2 0xB6D DUP3 PUSH2 0x8E3 JUMP JUMPDEST SWAP2 POP PUSH2 0xB78 DUP4 PUSH2 0x8E3 JUMP JUMPDEST SWAP3 POP DUP3 DUP3 LT ISZERO PUSH2 0xB8B JUMPI PUSH2 0xB8A PUSH2 0xB33 JUMP JUMPDEST JUMPDEST DUP3 DUP3 SUB SWAP1 POP SWAP3 SWAP2 POP POP JUMP JUMPDEST PUSH1 0x0 PUSH1 0x40 DUP3 ADD SWAP1 POP PUSH2 0xBAB PUSH1 0x0 DUP4 ADD DUP6 PUSH2 0x8ED JUMP JUMPDEST PUSH2 0xBB8 PUSH1 0x20 DUP4 ADD DUP5 PUSH2 0x8ED JUMP JUMPDEST SWAP4 SWAP3 POP POP POP JUMP JUMPDEST PUSH1 0x0 PUSH2 0xBCA DUP3 PUSH2 0x8E3 JUMP JUMPDEST SWAP2 POP PUSH2 0xBD5 DUP4 PUSH2 0x8E3 JUMP JUMPDEST SWAP3 POP DUP3 PUSH32 0xFFFFFFFFFFFFFFFFFFFFFFFFFFFFFFFFFFFFFFFFFFFFFFFFFFFFFFFFFFFFFFFF SUB DUP3 GT ISZERO PUSH2 0xC0A JUMPI PUSH2 0xC09 PUSH2 0xB33 JUMP JUMPDEST JUMPDEST DUP3 DUP3 ADD SWAP1 POP SWAP3 SWAP2 POP POP JUMP JUMPDEST PUSH32 0x4E487B7100000000000000000000000000000000000000000000000000000000 PUSH1 0x0 MSTORE PUSH1 0x22 PUSH1 0x4 MSTORE PUSH1 0x24 PUSH1 0x0 REVERT JUMPDEST PUSH1 0x0 PUSH1 0x2 DUP3 DIV SWAP1 POP PUSH1 0x1 DUP3 AND DUP1 PUSH2 0xC5C JUMPI PUSH1 0x7F DUP3 AND SWAP2 POP JUMPDEST PUSH1 0x20 DUP3 LT DUP2 EQ ISZERO PUSH2 0xC70 JUMPI PUSH2 0xC6F PUSH2 0xC15 JUMP JUMPDEST JUMPDEST POP SWAP2 SWAP1 POP JUMP INVALID LOG2 PUSH5 0x6970667358 0x22 SLT KECCAK256 PUSH28 0x53E1533E4F0BB087D7029C65B6BD9308A4BBD19FD991904355B57B47 0xA6 0xBD 0x4E PUSH5 0x736F6C6343 STOP ADDMOD MULMOD STOP CALLER "
        },
        "methodIdentifiers": {
          "claim()": "4e71d92d",
          "donate(uint256)": "f14faf6f",
          "donationOf(address)": "d949473f",
          "funders(address)": "031b3677",
          "getBalance()": "12065fe0",
          "getRefund()": "b2d5ae44",
          "moveDeadline()": "7f9f86b6",
          "owner()": "8da5cb5b",
          "project()": "f60ca60d",
          "raised()": "f0ea4bfc"
        }
      }
    }
  }
}