{
  "_format": "hh-sol-artifact-1",
  "contractName": "Kickstarter",
  "sourceName": "contracts/Kickstarter.sol",
  "abi": [
    {
      "inputs": [
        {
          "internalType": "string",
          "name": "_name",
          "type": "string"
        },
        {
          "internalType": "uint64",
          "name": "daysToRun",
          "type": "uint64"
        },
        {
          "internalType": "uint256",
          "name": "target",
          "type": "uint256"
        }
      ],
      "stateMutability": "nonpayable",
      "type": "constructor"
    },
    {
      "inputs": [
        {
          "internalType": "uint256",
          "name": "time",
          "type": "uint256"
        }
      ],
      "name": "TooEarly",
      "type": "error"
    },
    {
      "inputs": [
        {
          "internalType": "uint256",
          "name": "time",
          "type": "uint256"
        }
      ],
      "name": "TooLate",
      "type": "error"
    },
    {
      "anonymous": false,
      "inputs": [
        {
          "indexed": false,
          "internalType": "uint256",
          "name": "oldPrice",
          "type": "uint256"
        },
        {
          "indexed": false,
          "internalType": "uint256",
          "name": "newPrice",
          "type": "uint256"
        }
      ],
      "name": "FundingChanged",
      "type": "event"
    },
    {
      "inputs": [],
      "name": "claim",
      "outputs": [],
      "stateMutability": "payable",
      "type": "function"
    },
    {
      "inputs": [
        {
          "internalType": "uint256",
          "name": "amount",
          "type": "uint256"
        }
      ],
      "name": "donate",
      "outputs": [],
      "stateMutability": "payable",
      "type": "function"
    },
    {
      "inputs": [
        {
          "internalType": "address",
          "name": "funder",
          "type": "address"
        }
      ],
      "name": "donationOf",
      "outputs": [
        {
          "internalType": "uint256",
          "name": "",
          "type": "uint256"
        }
      ],
      "stateMutability": "view",
      "type": "function"
    },
    {
      "inputs": [
        {
          "internalType": "address",
          "name": "",
          "type": "address"
        }
      ],
      "name": "funders",
      "outputs": [
        {
          "internalType": "uint256",
          "name": "",
          "type": "uint256"
        }
      ],
      "stateMutability": "view",
      "type": "function"
    },
    {
      "inputs": [],
      "name": "getBalance",
      "outputs": [
        {
          "internalType": "uint256",
          "name": "",
          "type": "uint256"
        }
      ],
      "stateMutability": "view",
      "type": "function"
    },
    {
      "inputs": [],
      "name": "getRefund",
      "outputs": [],
      "stateMutability": "payable",
      "type": "function"
    },
    {
      "inputs": [],
      "name": "moveDeadline",
      "outputs": [],
      "stateMutability": "nonpayable",
      "type": "function"
    },
    {
      "inputs": [],
      "name": "owner",
      "outputs": [
        {
          "internalType": "address",
          "name": "",
          "type": "address"
        }
      ],
      "stateMutability": "view",
      "type": "function"
    },
    {
      "inputs": [],
      "name": "project",
      "outputs": [
        {
          "internalType": "address payable",
          "name": "owner",
          "type": "address"
        },
        {
          "internalType": "string",
          "name": "name",
          "type": "string"
        },
        {
          "internalType": "uint256",
          "name": "goal",
          "type": "uint256"
        },
        {
          "internalType": "uint256",
          "name": "deadline",
          "type": "uint256"
        },
        {
          "internalType": "uint256",
          "name": "raised",
          "type": "uint256"
        },
        {
          "internalType": "enum Kickstarter.State",
          "name": "state",
          "type": "uint8"
        }
      ],
      "stateMutability": "view",
      "type": "function"
    },
    {
      "inputs": [],
      "name": "raised",
      "outputs": [
        {
          "internalType": "uint256",
          "name": "",
          "type": "uint256"
        }
      ],
      "stateMutability": "view",
      "type": "function"
    }
  ],
  "bytecode": "0x60806040523480156200001157600080fd5b5060405162001281380380620012818339818101604052810190620000379190620003e1565b336000800160006101000a81548173ffffffffffffffffffffffffffffffffffffffff021916908373ffffffffffffffffffffffffffffffffffffffff16021790555082600060010190805190602001906200009592919062000114565b506201518082620000a791906200048b565b67ffffffffffffffff1642620000be9190620004d4565b600060030181905550806000600201819055506000806004018190555060008060050160006101000a81548160ff0219169083600281111562000106576200010562000531565b5b0217905550505050620005c5565b82805462000122906200058f565b90600052602060002090601f01602090048101928262000146576000855562000192565b82601f106200016157805160ff191683800117855562000192565b8280016001018555821562000192579182015b828111156200019157825182559160200191906001019062000174565b5b509050620001a19190620001a5565b5090565b5b80821115620001c0576000816000905550600101620001a6565b5090565b6000604051905090565b600080fd5b600080fd5b600080fd5b600080fd5b6000601f19601f8301169050919050565b7f4e487b7100000000000000000000000000000000000000000000000000000000600052604160045260246000fd5b6200022d82620001e2565b810181811067ffffffffffffffff821117156200024f576200024e620001f3565b5b80604052505050565b600062000264620001c4565b905062000272828262000222565b919050565b600067ffffffffffffffff821115620002955762000294620001f3565b5b620002a082620001e2565b9050602081019050919050565b60005b83811015620002cd578082015181840152602081019050620002b0565b83811115620002dd576000848401525b50505050565b6000620002fa620002f48462000277565b62000258565b905082815260208101848484011115620003195762000318620001dd565b5b62000326848285620002ad565b509392505050565b600082601f830112620003465762000345620001d8565b5b815162000358848260208601620002e3565b91505092915050565b600067ffffffffffffffff82169050919050565b620003808162000361565b81146200038c57600080fd5b50565b600081519050620003a08162000375565b92915050565b6000819050919050565b620003bb81620003a6565b8114620003c757600080fd5b50565b600081519050620003db81620003b0565b92915050565b600080600060608486031215620003fd57620003fc620001ce565b5b600084015167ffffffffffffffff8111156200041e576200041d620001d3565b5b6200042c868287016200032e565b93505060206200043f868287016200038f565b92505060406200045286828701620003ca565b9150509250925092565b7f4e487b7100000000000000000000000000000000000000000000000000000000600052601160045260246000fd5b6000620004988262000361565b9150620004a58362000361565b92508167ffffffffffffffff0483118215151615620004c957620004c86200045c565b5b828202905092915050565b6000620004e182620003a6565b9150620004ee83620003a6565b9250827fffffffffffffffffffffffffffffffffffffffffffffffffffffffffffffffff038211156200052657620005256200045c565b5b828201905092915050565b7f4e487b7100000000000000000000000000000000000000000000000000000000600052602160045260246000fd5b7f4e487b7100000000000000000000000000000000000000000000000000000000600052602260045260246000fd5b60006002820490506001821680620005a857607f821691505b60208210811415620005bf57620005be62000560565b5b50919050565b610cac80620005d56000396000f3fe6080604052600436106100915760003560e01c8063b2d5ae4411610059578063b2d5ae441461014a578063d949473f14610154578063f0ea4bfc14610191578063f14faf6f146101bc578063f60ca60d146101d857610091565b8063031b36771461009657806312065fe0146100d35780634e71d92d146100fe5780637f9f86b6146101085780638da5cb5b1461011f575b600080fd5b3480156100a257600080fd5b506100bd60048036038101906100b891906108b6565b610208565b6040516100ca91906108fc565b60405180910390f35b3480156100df57600080fd5b506100e8610220565b6040516100f591906108fc565b60405180910390f35b610106610228565b005b34801561011457600080fd5b5061011d610396565b005b34801561012b57600080fd5b5061013461040c565b6040516101419190610926565b60405180910390f35b610152610438565b005b34801561016057600080fd5b5061017b600480360381019061017691906108b6565b6105cf565b60405161018891906108fc565b60405180910390f35b34801561019d57600080fd5b506101a6610618565b6040516101b391906108fc565b60405180910390f35b6101d660048036038101906101d1919061096d565b610624565b005b3480156101e457600080fd5b506101ed610774565b6040516101ff96959493929190610acb565b60405180910390f35b60066020528060005260406000206000915090505481565b600047905090565b60006003015480421161027257806040517f2a35a32400000000000000000000000000000000000000000000000000000000815260040161026991906108fc565b60405180910390fd5b600060020154600060040154101561028957600080fd5b6001600281111561029d5761029c610a54565b5b600060050160009054906101000a900460ff1660028111156102c2576102c1610a54565b5b146102cc57600080fd5b6000800160009054906101000a900473ffffffffffffffffffffffffffffffffffffffff1673ffffffffffffffffffffffffffffffffffffffff163373ffffffffffffffffffffffffffffffffffffffff161461032857600080fd5b6000800160009054906101000a900473ffffffffffffffffffffffffffffffffffffffff1673ffffffffffffffffffffffffffffffffffffffff166108fc479081150290604051600060405180830381858888f19350505050158015610392573d6000803e3d6000fd5b5050565b3373ffffffffffffffffffffffffffffffffffffffff166000800160009054906101000a900473ffffffffffffffffffffffffffffffffffffffff1673ffffffffffffffffffffffffffffffffffffffff16146103f257600080fd5b62015180426104019190610b62565b600060030181905550565b60008060000160009054906101000a900473ffffffffffffffffffffffffffffffffffffffff16905090565b60006003015480421161048257806040517f2a35a32400000000000000000000000000000000000000000000000000000000815260040161047991906108fc565b60405180910390fd5b6000600201546000600401541061049857600080fd5b6000600660003373ffffffffffffffffffffffffffffffffffffffff1673ffffffffffffffffffffffffffffffffffffffff16815260200190815260200160002054116104e457600080fd5b6000600660003373ffffffffffffffffffffffffffffffffffffffff1673ffffffffffffffffffffffffffffffffffffffff16815260200190815260200160002054905060008160006004015461053b9190610b62565b90507f1bd3c820742597d2bd9378b77a42081c5f5e565b6e3a64259d9e2ecde0c9ef6e60006004015482604051610573929190610b96565b60405180910390a1806000600401819055506000600660003373ffffffffffffffffffffffffffffffffffffffff1673ffffffffffffffffffffffffffffffffffffffff16815260200190815260200160002081905550505050565b6000600660008373ffffffffffffffffffffffffffffffffffffffff1673ffffffffffffffffffffffffffffffffffffffff168152602001908152602001600020549050919050565b60008060040154905090565b6000600301548042111561066f57806040517f691e568200000000000000000000000000000000000000000000000000000000815260040161066691906108fc565b60405180910390fd5b6000821161067c57600080fd5b60008260006004015461068f9190610bbf565b90507f1bd3c820742597d2bd9378b77a42081c5f5e565b6e3a64259d9e2ecde0c9ef6e600060040154826040516106c7929190610b96565b60405180910390a182600660003373ffffffffffffffffffffffffffffffffffffffff1673ffffffffffffffffffffffffffffffffffffffff168152602001908152602001600020600082825461071e9190610bbf565b92505081905550806000600401819055506000600201546000600401541061076f576001600060050160006101000a81548160ff0219169083600281111561076957610768610a54565b5b02179055505b505050565b60008060000160009054906101000a900473ffffffffffffffffffffffffffffffffffffffff16908060010180546107ab90610c44565b80601f01602080910402602001604051908101604052809291908181526020018280546107d790610c44565b80156108245780601f106107f957610100808354040283529160200191610824565b820191906000526020600020905b81548152906001019060200180831161080757829003601f168201915b5050505050908060020154908060030154908060040154908060050160009054906101000a900460ff16905086565b600080fd5b600073ffffffffffffffffffffffffffffffffffffffff82169050919050565b600061088382610858565b9050919050565b61089381610878565b811461089e57600080fd5b50565b6000813590506108b08161088a565b92915050565b6000602082840312156108cc576108cb610853565b5b60006108da848285016108a1565b91505092915050565b6000819050919050565b6108f6816108e3565b82525050565b600060208201905061091160008301846108ed565b92915050565b61092081610878565b82525050565b600060208201905061093b6000830184610917565b92915050565b61094a816108e3565b811461095557600080fd5b50565b60008135905061096781610941565b92915050565b60006020828403121561098357610982610853565b5b600061099184828501610958565b91505092915050565b60006109a582610858565b9050919050565b6109b58161099a565b82525050565b600081519050919050565b600082825260208201905092915050565b60005b838110156109f55780820151818401526020810190506109da565b83811115610a04576000848401525b50505050565b6000601f19601f8301169050919050565b6000610a26826109bb565b610a3081856109c6565b9350610a408185602086016109d7565b610a4981610a0a565b840191505092915050565b7f4e487b7100000000000000000000000000000000000000000000000000000000600052602160045260246000fd5b60038110610a9457610a93610a54565b5b50565b6000819050610aa582610a83565b919050565b6000610ab582610a97565b9050919050565b610ac581610aaa565b82525050565b600060c082019050610ae060008301896109ac565b8181036020830152610af28188610a1b565b9050610b0160408301876108ed565b610b0e60608301866108ed565b610b1b60808301856108ed565b610b2860a0830184610abc565b979650505050505050565b7f4e487b7100000000000000000000000000000000000000000000000000000000600052601160045260246000fd5b6000610b6d826108e3565b9150610b78836108e3565b925082821015610b8b57610b8a610b33565b5b828203905092915050565b6000604082019050610bab60008301856108ed565b610bb860208301846108ed565b9392505050565b6000610bca826108e3565b9150610bd5836108e3565b9250827fffffffffffffffffffffffffffffffffffffffffffffffffffffffffffffffff03821115610c0a57610c09610b33565b5b828201905092915050565b7f4e487b7100000000000000000000000000000000000000000000000000000000600052602260045260246000fd5b60006002820490506001821680610c5c57607f821691505b60208210811415610c7057610c6f610c15565b5b5091905056fea26469706673582212207b53e1533e4f0bb087d7029c65b6bd9308a4bbd19fd991904355b57b47a6bd4e64736f6c63430008090033",
  "linkReferences": {},
  "deployedLinkReferences": {}
}